{
  "_format": "hh-sol-artifact-1",
  "contractName": "ERC721Staking",
  "sourceName": "contracts/StakingContract.sol",
  "abi": [
    {
      "inputs": [
        {
          "internalType": "contract ERC721",
          "name": "_nftCollection",
          "type": "address"
        },
        {
          "internalType": "contract IERC20",
          "name": "_rewardsToken",
          "type": "address"
        }
      ],
      "stateMutability": "nonpayable",
      "type": "constructor"
    },
    {
      "anonymous": false,
      "inputs": [
        {
          "indexed": true,
          "internalType": "bytes32",
          "name": "id",
          "type": "bytes32"
        }
      ],
      "name": "ChainlinkCancelled",
      "type": "event"
    },
    {
      "anonymous": false,
      "inputs": [
        {
          "indexed": true,
          "internalType": "bytes32",
          "name": "id",
          "type": "bytes32"
        }
      ],
      "name": "ChainlinkFulfilled",
      "type": "event"
    },
    {
      "anonymous": false,
      "inputs": [
        {
          "indexed": true,
          "internalType": "bytes32",
          "name": "id",
          "type": "bytes32"
        }
      ],
      "name": "ChainlinkRequested",
      "type": "event"
    },
    {
      "anonymous": false,
      "inputs": [
        {
          "indexed": true,
          "internalType": "address",
          "name": "from",
          "type": "address"
        },
        {
          "indexed": true,
          "internalType": "address",
          "name": "to",
          "type": "address"
        }
      ],
      "name": "OwnershipTransferRequested",
      "type": "event"
    },
    {
      "anonymous": false,
      "inputs": [
        {
          "indexed": true,
          "internalType": "address",
          "name": "from",
          "type": "address"
        },
        {
          "indexed": true,
          "internalType": "address",
          "name": "to",
          "type": "address"
        }
      ],
      "name": "OwnershipTransferred",
      "type": "event"
    },
    {
      "anonymous": false,
      "inputs": [
        {
          "indexed": true,
          "internalType": "bytes32",
          "name": "requestId",
          "type": "bytes32"
        },
        {
          "indexed": false,
          "internalType": "uint256",
          "name": "level",
          "type": "uint256"
        }
      ],
      "name": "RequestLevel",
      "type": "event"
    },
    {
      "inputs": [],
      "name": "acceptOwnership",
      "outputs": [],
      "stateMutability": "nonpayable",
      "type": "function"
    },
    {
      "inputs": [
        {
          "internalType": "address",
          "name": "_staker",
          "type": "address"
        }
      ],
      "name": "availableRewards",
      "outputs": [
        {
          "internalType": "uint256",
          "name": "",
          "type": "uint256"
        }
      ],
      "stateMutability": "view",
      "type": "function"
    },
    {
      "inputs": [],
      "name": "claimRewards",
      "outputs": [],
      "stateMutability": "nonpayable",
      "type": "function"
    },
    {
      "inputs": [
        {
          "internalType": "bytes32",
          "name": "_requestId",
          "type": "bytes32"
        },
        {
          "internalType": "uint256",
          "name": "_level",
          "type": "uint256"
        }
      ],
      "name": "fulfill",
      "outputs": [],
      "stateMutability": "nonpayable",
      "type": "function"
    },
    {
      "inputs": [
        {
          "internalType": "address",
          "name": "_user",
          "type": "address"
        }
      ],
      "name": "getStakedTokens",
      "outputs": [
        {
          "components": [
            {
              "internalType": "address",
              "name": "staker",
              "type": "address"
            },
            {
              "internalType": "uint256",
              "name": "tokenId",
              "type": "uint256"
            }
          ],
          "internalType": "struct ERC721Staking.StakedToken[]",
          "name": "",
          "type": "tuple[]"
        }
      ],
      "stateMutability": "view",
      "type": "function"
    },
    {
      "inputs": [
        {
          "internalType": "string",
          "name": "_tokenId",
          "type": "string"
        }
      ],
      "name": "getUrl",
      "outputs": [
        {
          "internalType": "string",
          "name": "url",
          "type": "string"
        }
      ],
      "stateMutability": "pure",
      "type": "function"
    },
    {
      "inputs": [],
      "name": "nftCollection",
      "outputs": [
        {
          "internalType": "contract ERC721",
          "name": "",
          "type": "address"
        }
      ],
      "stateMutability": "view",
      "type": "function"
    },
    {
      "inputs": [],
      "name": "owner",
      "outputs": [
        {
          "internalType": "address",
          "name": "",
          "type": "address"
        }
      ],
      "stateMutability": "view",
      "type": "function"
    },
    {
      "inputs": [
        {
          "internalType": "uint256",
          "name": "_tokenId",
          "type": "uint256"
        }
      ],
      "name": "requestLevelData",
      "outputs": [
        {
          "internalType": "bytes32",
          "name": "requestId",
          "type": "bytes32"
        }
      ],
      "stateMutability": "nonpayable",
      "type": "function"
    },
    {
      "inputs": [],
      "name": "rewardsToken",
      "outputs": [
        {
          "internalType": "contract IERC20",
          "name": "",
          "type": "address"
        }
      ],
      "stateMutability": "view",
      "type": "function"
    },
    {
      "inputs": [
        {
          "internalType": "uint256",
          "name": "_tokenId",
          "type": "uint256"
        }
      ],
      "name": "stake",
      "outputs": [],
      "stateMutability": "nonpayable",
      "type": "function"
    },
    {
      "inputs": [
        {
          "internalType": "uint256",
          "name": "",
          "type": "uint256"
        }
      ],
      "name": "stakerAddress",
      "outputs": [
        {
          "internalType": "address",
          "name": "",
          "type": "address"
        }
      ],
      "stateMutability": "view",
      "type": "function"
    },
    {
      "inputs": [
        {
          "internalType": "address",
          "name": "",
          "type": "address"
        }
      ],
      "name": "stakers",
      "outputs": [
        {
          "internalType": "uint256",
          "name": "amountStaked",
          "type": "uint256"
        },
        {
          "internalType": "uint256",
          "name": "timeOfLastUpdate",
          "type": "uint256"
        },
        {
          "internalType": "uint256",
          "name": "unclaimedRewards",
          "type": "uint256"
        }
      ],
      "stateMutability": "view",
      "type": "function"
    },
    {
      "inputs": [
        {
          "internalType": "address",
          "name": "to",
          "type": "address"
        }
      ],
      "name": "transferOwnership",
      "outputs": [],
      "stateMutability": "nonpayable",
      "type": "function"
    },
    {
      "inputs": [
        {
          "internalType": "uint256",
          "name": "_tokenId",
          "type": "uint256"
        }
      ],
      "name": "withdraw",
      "outputs": [],
      "stateMutability": "nonpayable",
      "type": "function"
    }
  ],
  "bytecode": "0x60c060405260016005556001600c55620186a0600d553480156200002257600080fd5b5060405162004ae938038062004ae983398181016040528101906200004891906200044c565b338060006001600081905550600073ffffffffffffffffffffffffffffffffffffffff168273ffffffffffffffffffffffffffffffffffffffff161415620000c7576040517f08c379a0000000000000000000000000000000000000000000000000000000008152600401620000be90620004db565b60405180910390fd5b81600760006101000a81548173ffffffffffffffffffffffffffffffffffffffff021916908373ffffffffffffffffffffffffffffffffffffffff160217905550600073ffffffffffffffffffffffffffffffffffffffff168173ffffffffffffffffffffffffffffffffffffffff16146200014f576200014e816200026460201b60201c565b5b5050508173ffffffffffffffffffffffffffffffffffffffff1660a08173ffffffffffffffffffffffffffffffffffffffff1660601b815250508073ffffffffffffffffffffffffffffffffffffffff1660808173ffffffffffffffffffffffffffffffffffffffff1660601b81525050620001e573326c977e6efc84e512bb9c30f76e30c160ed06fb6200039660201b60201c565b6200020a7340193c8518bb267228fc409a613bdbd8ec5a97b3620003da60201b60201c565b7f6361393833363663633733313439353762386330313263373266303561656562600981905550600a670de0b6b3a764000060016200024a919062000568565b62000256919062000530565b600a81905550505062000713565b3373ffffffffffffffffffffffffffffffffffffffff168173ffffffffffffffffffffffffffffffffffffffff161415620002d6576040517f08c379a0000000000000000000000000000000000000000000000000000000008152600401620002cd90620004fd565b60405180910390fd5b80600860006101000a81548173ffffffffffffffffffffffffffffffffffffffff021916908373ffffffffffffffffffffffffffffffffffffffff1602179055508073ffffffffffffffffffffffffffffffffffffffff16600760009054906101000a900473ffffffffffffffffffffffffffffffffffffffff1673ffffffffffffffffffffffffffffffffffffffff167fed8889f560326eb138920d842192f0eb3dd22b4f139c87a2c57538e05bae127860405160405180910390a350565b80600360006101000a81548173ffffffffffffffffffffffffffffffffffffffff021916908373ffffffffffffffffffffffffffffffffffffffff16021790555050565b80600460006101000a81548173ffffffffffffffffffffffffffffffffffffffff021916908373ffffffffffffffffffffffffffffffffffffffff16021790555050565b6000815190506200042f81620006df565b92915050565b6000815190506200044681620006f9565b92915050565b600080604083850312156200046057600080fd5b600062000470858286016200041e565b9250506020620004838582860162000435565b9150509250929050565b60006200049c6018836200051f565b9150620004a9826200068d565b602082019050919050565b6000620004c36017836200051f565b9150620004d082620006b6565b602082019050919050565b60006020820190508181036000830152620004f6816200048d565b9050919050565b600060208201905081810360008301526200051881620004b4565b9050919050565b600082825260208201905092915050565b60006200053d8262000625565b91506200054a8362000625565b9250826200055d576200055c6200065e565b5b828204905092915050565b6000620005758262000625565b9150620005828362000625565b9250817fffffffffffffffffffffffffffffffffffffffffffffffffffffffffffffffff0483118215151615620005be57620005bd6200062f565b5b828202905092915050565b6000620005d68262000605565b9050919050565b6000620005ea82620005c9565b9050919050565b6000620005fe82620005c9565b9050919050565b600073ffffffffffffffffffffffffffffffffffffffff82169050919050565b6000819050919050565b7f4e487b7100000000000000000000000000000000000000000000000000000000600052601160045260246000fd5b7f4e487b7100000000000000000000000000000000000000000000000000000000600052601260045260246000fd5b7f43616e6e6f7420736574206f776e657220746f207a65726f0000000000000000600082015250565b7f43616e6e6f74207472616e7366657220746f2073656c66000000000000000000600082015250565b620006ea81620005dd565b8114620006f657600080fd5b50565b6200070481620005f1565b81146200071057600080fd5b50565b60805160601c60a05160601c6143876200076260003960008181610830015281816112b501528181611566015281816116650152611934015260008181610a440152611adb01526143876000f3fe608060405234801561001057600080fd5b50600436106100f55760003560e01c80638da5cb5b11610097578063c24a804d11610066578063c24a804d14610260578063d1af0c7d14610290578063f2fde38b146102ae578063f854a27f146102ca576100f5565b80638da5cb5b146101c45780639168ae72146101e25780639406704514610214578063a694fc3a14610244576100f5565b806345e74369116100d357806345e743691461013c57806363c28db11461016c5780636588103b1461019c57806379ba5097146101ba576100f5565b80632e1a7d4d146100fa578063372500ab146101165780634357855e14610120575b600080fd5b610114600480360381019061010f9190613191565b6102fa565b005b61011e610911565b005b61013a600480360381019061013591906130d3565b610a8b565b005b6101566004803603810190610151919061310f565b610cb6565b6040516101639190613795565b60405180910390f35b61018660048036038101906101819190613058565b610e8f565b6040516101939190613722565b60405180910390f35b6101a46112b3565b6040516101b1919061375f565b60405180910390f35b6101c26112d7565b005b6101cc61146e565b6040516101d991906135e4565b60405180910390f35b6101fc60048036038101906101f79190613058565b611498565b60405161020b93929190613952565b60405180910390f35b61022e60048036038101906102299190613191565b6114c2565b60405161023b91906135e4565b60405180910390f35b61025e60048036038101906102599190613191565b6114f5565b005b61027a60048036038101906102759190613191565b6118dd565b6040516102879190613744565b60405180910390f35b610298611ad9565b6040516102a5919061377a565b60405180910390f35b6102c860048036038101906102c39190613058565b611afd565b005b6102e460048036038101906102df9190613058565b611b11565b6040516102f19190613937565b60405180910390f35b60026000541415610340576040517f08c379a000000000000000000000000000000000000000000000000000000000815260040161033790613917565b60405180910390fd5b60026000819055506000600e60003373ffffffffffffffffffffffffffffffffffffffff1673ffffffffffffffffffffffffffffffffffffffff16815260200190815260200160002060000154116103cd576040517f08c379a00000000000000000000000000000000000000000000000000000000081526004016103c4906137f7565b60405180910390fd5b3373ffffffffffffffffffffffffffffffffffffffff16600f600083815260200190815260200160002060009054906101000a900473ffffffffffffffffffffffffffffffffffffffff1673ffffffffffffffffffffffffffffffffffffffff161461046e576040517f08c379a0000000000000000000000000000000000000000000000000000000008152600401610465906137b7565b60405180910390fd5b600061047933611b75565b905080600e60003373ffffffffffffffffffffffffffffffffffffffff1673ffffffffffffffffffffffffffffffffffffffff16815260200190815260200160002060030160008282546104cd9190613a66565b925050819055506000805b600e60003373ffffffffffffffffffffffffffffffffffffffff1673ffffffffffffffffffffffffffffffffffffffff168152602001908152602001600020600101805490508110156106b75783600e60003373ffffffffffffffffffffffffffffffffffffffff1673ffffffffffffffffffffffffffffffffffffffff16815260200190815260200160002060010182815481106105a0577f4e487b7100000000000000000000000000000000000000000000000000000000600052603260045260246000fd5b9060005260206000209060020201600101541480156106975750600073ffffffffffffffffffffffffffffffffffffffff16600e60003373ffffffffffffffffffffffffffffffffffffffff1673ffffffffffffffffffffffffffffffffffffffff168152602001908152602001600020600101828154811061064c577f4e487b7100000000000000000000000000000000000000000000000000000000600052603260045260246000fd5b906000526020600020906002020160000160009054906101000a900473ffffffffffffffffffffffffffffffffffffffff1673ffffffffffffffffffffffffffffffffffffffff1614155b156106a4578091506106b7565b80806106af90613f11565b9150506104d8565b506000600e60003373ffffffffffffffffffffffffffffffffffffffff1673ffffffffffffffffffffffffffffffffffffffff1681526020019081526020016000206001018281548110610734577f4e487b7100000000000000000000000000000000000000000000000000000000600052603260045260246000fd5b906000526020600020906002020160000160006101000a81548173ffffffffffffffffffffffffffffffffffffffff021916908373ffffffffffffffffffffffffffffffffffffffff160217905550600e60003373ffffffffffffffffffffffffffffffffffffffff1673ffffffffffffffffffffffffffffffffffffffff16815260200190815260200160002060000160008154809291906107d690613eb6565b91905055506000600f600085815260200190815260200160002060006101000a81548173ffffffffffffffffffffffffffffffffffffffff021916908373ffffffffffffffffffffffffffffffffffffffff1602179055507f000000000000000000000000000000000000000000000000000000000000000073ffffffffffffffffffffffffffffffffffffffff166323b872dd3033866040518463ffffffff1660e01b815260040161088b939291906135ff565b600060405180830381600087803b1580156108a557600080fd5b505af11580156108b9573d6000803e3d6000fd5b5050505042600e60003373ffffffffffffffffffffffffffffffffffffffff1673ffffffffffffffffffffffffffffffffffffffff168152602001908152602001600020600201819055505050600160008190555050565b6000600e60003373ffffffffffffffffffffffffffffffffffffffff1673ffffffffffffffffffffffffffffffffffffffff1681526020019081526020016000206003015461095f33611b75565b6109699190613a66565b9050600081116109ae576040517f08c379a00000000000000000000000000000000000000000000000000000000081526004016109a590613877565b60405180910390fd5b42600e60003373ffffffffffffffffffffffffffffffffffffffff1673ffffffffffffffffffffffffffffffffffffffff168152602001908152602001600020600201819055506000600e60003373ffffffffffffffffffffffffffffffffffffffff1673ffffffffffffffffffffffffffffffffffffffff16815260200190815260200160002060030181905550610a8833827f000000000000000000000000000000000000000000000000000000000000000073ffffffffffffffffffffffffffffffffffffffff16611c409092919063ffffffff16565b50565b816006600082815260200190815260200160002060009054906101000a900473ffffffffffffffffffffffffffffffffffffffff1673ffffffffffffffffffffffffffffffffffffffff163373ffffffffffffffffffffffffffffffffffffffff1614610b2d576040517f08c379a0000000000000000000000000000000000000000000000000000000008152600401610b24906138d7565b60405180910390fd5b6006600082815260200190815260200160002060006101000a81549073ffffffffffffffffffffffffffffffffffffffff0219169055807f7cc135e0cebb02c3480ae5d74d377283180a2601f8f644edf7987b009316c63a60405160405180910390a2827f313800f65e54c89a476489c814a85f8eee38658bd686f956217ae2cb23f2fd8583604051610bc09190613937565b60405180910390a2600c5482600b54610bd99190613a66565b610be39190613abc565b600b819055506001600c54610bf89190613a66565b600c819055506000600e60003373ffffffffffffffffffffffffffffffffffffffff1673ffffffffffffffffffffffffffffffffffffffff168152602001908152602001600020600001541115610cb1576000610c5433611b75565b905080600e60003373ffffffffffffffffffffffffffffffffffffffff1673ffffffffffffffffffffffffffffffffffffffff1681526020019081526020016000206003016000828254610ca89190613a66565b92505081905550505b505050565b606060008290506000610cc884611cc6565b90506000600782610cd99190613d4c565b67ffffffffffffffff811115610d18577f4e487b7100000000000000000000000000000000000000000000000000000000600052604160045260246000fd5b6040519080825280601f01601f191660200182016040528015610d4a5781602001600182028036833780820191505090505b5090506000600790505b82811015610e2757838181518110610d95577f4e487b7100000000000000000000000000000000000000000000000000000000600052603260045260246000fd5b602001015160f81c60f81b82600783610dae9190613d4c565b81518110610de5577f4e487b7100000000000000000000000000000000000000000000000000000000600052603260045260246000fd5b60200101907effffffffffffffffffffffffffffffffffffffffffffffffffffffffffffff1916908160001a9053508080610e1f90613f11565b915050610d54565b5060006040518060400160405280601581526020017f68747470733a2f2f697066732e696f2f697066732f000000000000000000000081525090508082604051602001610e759291906135c0565b604051602081830303815290604052945050505050919050565b60606000600e60008473ffffffffffffffffffffffffffffffffffffffff1673ffffffffffffffffffffffffffffffffffffffff168152602001908152602001600020600001541115611230576000600e60008473ffffffffffffffffffffffffffffffffffffffff1673ffffffffffffffffffffffffffffffffffffffff1681526020019081526020016000206000015467ffffffffffffffff811115610f60577f4e487b7100000000000000000000000000000000000000000000000000000000600052604160045260246000fd5b604051908082528060200260200182016040528015610f9957816020015b610f86612e68565b815260200190600190039081610f7e5790505b5090506000805b600e60008673ffffffffffffffffffffffffffffffffffffffff1673ffffffffffffffffffffffffffffffffffffffff1681526020019081526020016000206001018054905081101561122557600073ffffffffffffffffffffffffffffffffffffffff16600e60008773ffffffffffffffffffffffffffffffffffffffff1673ffffffffffffffffffffffffffffffffffffffff168152602001908152602001600020600101828154811061107f577f4e487b7100000000000000000000000000000000000000000000000000000000600052603260045260246000fd5b906000526020600020906002020160000160009054906101000a900473ffffffffffffffffffffffffffffffffffffffff1673ffffffffffffffffffffffffffffffffffffffff161461121257600e60008673ffffffffffffffffffffffffffffffffffffffff1673ffffffffffffffffffffffffffffffffffffffff1681526020019081526020016000206001018181548110611146577f4e487b7100000000000000000000000000000000000000000000000000000000600052603260045260246000fd5b90600052602060002090600202016040518060400160405290816000820160009054906101000a900473ffffffffffffffffffffffffffffffffffffffff1673ffffffffffffffffffffffffffffffffffffffff1673ffffffffffffffffffffffffffffffffffffffff1681526020016001820154815250508383815181106111f8577f4e487b7100000000000000000000000000000000000000000000000000000000600052603260045260246000fd5b6020026020010181905250818061120e90613f11565b9250505b808061121d90613f11565b915050610fa0565b5081925050506112ae565b600067ffffffffffffffff811115611271577f4e487b7100000000000000000000000000000000000000000000000000000000600052604160045260246000fd5b6040519080825280602002602001820160405280156112aa57816020015b611297612e68565b81526020019060019003908161128f5790505b5090505b919050565b7f000000000000000000000000000000000000000000000000000000000000000081565b600860009054906101000a900473ffffffffffffffffffffffffffffffffffffffff1673ffffffffffffffffffffffffffffffffffffffff163373ffffffffffffffffffffffffffffffffffffffff1614611367576040517f08c379a000000000000000000000000000000000000000000000000000000000815260040161135e906137d7565b60405180910390fd5b6000600760009054906101000a900473ffffffffffffffffffffffffffffffffffffffff16905033600760006101000a81548173ffffffffffffffffffffffffffffffffffffffff021916908373ffffffffffffffffffffffffffffffffffffffff1602179055506000600860006101000a81548173ffffffffffffffffffffffffffffffffffffffff021916908373ffffffffffffffffffffffffffffffffffffffff1602179055503373ffffffffffffffffffffffffffffffffffffffff168173ffffffffffffffffffffffffffffffffffffffff167f8be0079c531659141344cd1fd0a4f28419497f9722a3daafe3b4186f6b6457e060405160405180910390a350565b6000600760009054906101000a900473ffffffffffffffffffffffffffffffffffffffff16905090565b600e6020528060005260406000206000915090508060000154908060020154908060030154905083565b600f6020528060005260406000206000915054906101000a900473ffffffffffffffffffffffffffffffffffffffff1681565b6002600054141561153b576040517f08c379a000000000000000000000000000000000000000000000000000000000815260040161153290613917565b60405180910390fd5b600260008190555061154c816118dd565b503373ffffffffffffffffffffffffffffffffffffffff167f000000000000000000000000000000000000000000000000000000000000000073ffffffffffffffffffffffffffffffffffffffff16636352211e836040518263ffffffff1660e01b81526004016115bd9190613937565b60206040518083038186803b1580156115d557600080fd5b505afa1580156115e9573d6000803e3d6000fd5b505050506040513d601f19601f8201168201806040525081019061160d9190613081565b73ffffffffffffffffffffffffffffffffffffffff1614611663576040517f08c379a000000000000000000000000000000000000000000000000000000000815260040161165a906137b7565b60405180910390fd5b7f000000000000000000000000000000000000000000000000000000000000000073ffffffffffffffffffffffffffffffffffffffff166323b872dd3330846040518463ffffffff1660e01b81526004016116c0939291906135ff565b600060405180830381600087803b1580156116da57600080fd5b505af11580156116ee573d6000803e3d6000fd5b50505050600060405180604001604052803373ffffffffffffffffffffffffffffffffffffffff168152602001838152509050600e60003373ffffffffffffffffffffffffffffffffffffffff1673ffffffffffffffffffffffffffffffffffffffff16815260200190815260200160002060010181908060018154018082558091505060019003906000526020600020906002020160009091909190915060008201518160000160006101000a81548173ffffffffffffffffffffffffffffffffffffffff021916908373ffffffffffffffffffffffffffffffffffffffff160217905550602082015181600101555050600e60003373ffffffffffffffffffffffffffffffffffffffff1673ffffffffffffffffffffffffffffffffffffffff168152602001908152602001600020600001600081548092919061183390613f11565b919050555033600f600084815260200190815260200160002060006101000a81548173ffffffffffffffffffffffffffffffffffffffff021916908373ffffffffffffffffffffffffffffffffffffffff16021790555042600e60003373ffffffffffffffffffffffffffffffffffffffff1673ffffffffffffffffffffffffffffffffffffffff1681526020019081526020016000206002018190555050600160008190555050565b6000806118f460095430634357855e60e01b61201b565b90506119f56040518060400160405280600381526020017f67657400000000000000000000000000000000000000000000000000000000008152506119e57f000000000000000000000000000000000000000000000000000000000000000073ffffffffffffffffffffffffffffffffffffffff1663c87b56dd876040518263ffffffff1660e01b815260040161198b9190613937565b60006040518083038186803b1580156119a357600080fd5b505afa1580156119b7573d6000803e3d6000fd5b505050506040513d6000823e3d601f19601f820116820180604052508101906119e09190613150565b610cb6565b8361204c9092919063ffffffff16565b611a746040518060400160405280600481526020017f70617468000000000000000000000000000000000000000000000000000000008152506040518060400160405280601081526020017f617474726962757465732c6c6576656c000000000000000000000000000000008152508361204c9092919063ffffffff16565b6000600a9050611ac46040518060400160405280600581526020017f74696d6573000000000000000000000000000000000000000000000000000000815250828461207f9092919063ffffffff16565b611ad082600a546120b2565b92505050919050565b7f000000000000000000000000000000000000000000000000000000000000000081565b611b056120e9565b611b0e8161217b565b50565b600080600e60008473ffffffffffffffffffffffffffffffffffffffff1673ffffffffffffffffffffffffffffffffffffffff16815260200190815260200160002060030154611b6084611b75565b611b6a9190613a66565b905080915050919050565b6000600b54610e10600d54600e60008673ffffffffffffffffffffffffffffffffffffffff1673ffffffffffffffffffffffffffffffffffffffff16815260200190815260200160002060000154600e60008773ffffffffffffffffffffffffffffffffffffffff1673ffffffffffffffffffffffffffffffffffffffff1681526020019081526020016000206002015442611c119190613d4c565b611c1b9190613c5e565b611c259190613c5e565b611c2f9190613abc565b611c399190613c5e565b9050919050565b611cc18363a9059cbb60e01b8484604051602401611c5f929190613636565b604051602081830303815290604052907bffffffffffffffffffffffffffffffffffffffffffffffffffffffff19166020820180517bffffffffffffffffffffffffffffffffffffffffffffffffffffffff83818316178352505050506122aa565b505050565b6000806000905060008390505b805182101561201457600060f81b6007828481518110611d1c577f4e487b7100000000000000000000000000000000000000000000000000000000600052603260045260246000fd5b602001015160f81c60f81b7effffffffffffffffffffffffffffffffffffffffffffffffffffffffffffff1916901c7effffffffffffffffffffffffffffffffffffffffffffffffffffffffffffff19161415611d8757600182611d809190613a66565b9150612001565b600660f81b7effffffffffffffffffffffffffffffffffffffffffffffffffffffffffffff19166005828481518110611de9577f4e487b7100000000000000000000000000000000000000000000000000000000600052603260045260246000fd5b602001015160f81c60f81b7effffffffffffffffffffffffffffffffffffffffffffffffffffffffffffff1916901c7effffffffffffffffffffffffffffffffffffffffffffffffffffffffffffff19161415611e5457600282611e4d9190613a66565b9150612000565b600e60f81b7effffffffffffffffffffffffffffffffffffffffffffffffffffffffffffff19166004828481518110611eb6577f4e487b7100000000000000000000000000000000000000000000000000000000600052603260045260246000fd5b602001015160f81c60f81b7effffffffffffffffffffffffffffffffffffffffffffffffffffffffffffff1916901c7effffffffffffffffffffffffffffffffffffffffffffffffffffffffffffff19161415611f2157600382611f1a9190613a66565b9150611fff565b601e60f81b7effffffffffffffffffffffffffffffffffffffffffffffffffffffffffffff19166003828481518110611f83577f4e487b7100000000000000000000000000000000000000000000000000000000600052603260045260246000fd5b602001015160f81c60f81b7effffffffffffffffffffffffffffffffffffffffffffffffffffffffffffff1916901c7effffffffffffffffffffffffffffffffffffffffffffffffffffffffffffff19161415611fee57600482611fe79190613a66565b9150611ffe565b600182611ffb9190613a66565b91505b5b5b5b828061200c90613f11565b935050611cd3565b5050919050565b612023612e98565b61202b612e98565b61204285858584612371909392919063ffffffff16565b9150509392505050565b61206382846080015161242190919063ffffffff16565b61207a81846080015161242190919063ffffffff16565b505050565b61209682846080015161242190919063ffffffff16565b6120ad81846080015161244690919063ffffffff16565b505050565b60006120e1600460009054906101000a900473ffffffffffffffffffffffffffffffffffffffff1684846124f3565b905092915050565b600760009054906101000a900473ffffffffffffffffffffffffffffffffffffffff1673ffffffffffffffffffffffffffffffffffffffff163373ffffffffffffffffffffffffffffffffffffffff1614612179576040517f08c379a000000000000000000000000000000000000000000000000000000000815260040161217090613837565b60405180910390fd5b565b3373ffffffffffffffffffffffffffffffffffffffff168173ffffffffffffffffffffffffffffffffffffffff1614156121ea576040517f08c379a00000000000000000000000000000000000000000000000000000000081526004016121e1906138b7565b60405180910390fd5b80600860006101000a81548173ffffffffffffffffffffffffffffffffffffffff021916908373ffffffffffffffffffffffffffffffffffffffff1602179055508073ffffffffffffffffffffffffffffffffffffffff16600760009054906101000a900473ffffffffffffffffffffffffffffffffffffffff1673ffffffffffffffffffffffffffffffffffffffff167fed8889f560326eb138920d842192f0eb3dd22b4f139c87a2c57538e05bae127860405160405180910390a350565b600061230c826040518060400160405280602081526020017f5361666545524332303a206c6f772d6c6576656c2063616c6c206661696c65648152508573ffffffffffffffffffffffffffffffffffffffff166125bf9092919063ffffffff16565b905060008151111561236c578080602001905181019061232c91906130aa565b61236b576040517f08c379a0000000000000000000000000000000000000000000000000000000008152600401612362906138f7565b60405180910390fd5b5b505050565b612379612e98565b61238985608001516101006125d7565b508385600001818152505082856020019073ffffffffffffffffffffffffffffffffffffffff16908173ffffffffffffffffffffffffffffffffffffffff16815250508185604001907bffffffffffffffffffffffffffffffffffffffffffffffffffffffff191690817bffffffffffffffffffffffffffffffffffffffffffffffffffffffff191681525050849050949350505050565b61242e8260038351612641565b61244181836127c690919063ffffffff16565b505050565b7fffffffffffffffffffffffffffffffffffffffffffffffff000000000000000081121561247d5761247882826127e8565b6124ef565b67ffffffffffffffff81131561249c57612497828261285f565b6124ee565b600081126124b5576124b082600083612641565b6124ed565b6124ec826001837fffffffffffffffffffffffffffffffffffffffffffffffffffffffffffffffff6124e79190613cb8565b612641565b5b5b5b5050565b60008060055490506001816125089190613a66565b6005819055506000634042994660e01b60008087600001513089604001518760018c608001516000015160405160240161254998979695949392919061365f565b604051602081830303815290604052907bffffffffffffffffffffffffffffffffffffffffffffffffffffffff19166020820180517bffffffffffffffffffffffffffffffffffffffffffffffffffffffff838183161783525050505090506125b4868386846128ab565b925050509392505050565b60606125ce8484600085612a4f565b90509392505050565b6125df612f05565b60006020836125ee9190613f88565b1461261a576020826126009190613f88565b602061260c9190613d4c565b826126179190613a66565b91505b81836020018181525050604051808452600081528281016020016040525082905092915050565b60178167ffffffffffffffff1611612678576126728160058460ff16901b60ff161784612b6390919063ffffffff16565b506127c1565b60ff8167ffffffffffffffff16116126ce576126a7601860058460ff16901b1784612b6390919063ffffffff16565b506126c88167ffffffffffffffff16600185612b839092919063ffffffff16565b506127c0565b61ffff8167ffffffffffffffff1611612725576126fe601960058460ff16901b1784612b6390919063ffffffff16565b5061271f8167ffffffffffffffff16600285612b839092919063ffffffff16565b506127bf565b63ffffffff8167ffffffffffffffff161161277e57612757601a60058460ff16901b1784612b6390919063ffffffff16565b506127788167ffffffffffffffff16600485612b839092919063ffffffff16565b506127be565b61279b601b60058460ff16901b1784612b6390919063ffffffff16565b506127bc8167ffffffffffffffff16600885612b839092919063ffffffff16565b505b5b5b5b505050565b6127ce612f05565b6127e083846000015151848551612ba5565b905092915050565b61280660036005600660ff16901b1783612b6390919063ffffffff16565b5061285b82827fffffffffffffffffffffffffffffffffffffffffffffffffffffffffffffffff6128379190613cb8565b6040516020016128479190613937565b604051602081830303815290604052612c94565b5050565b61287d60026005600660ff16901b1783612b6390919063ffffffff16565b506128a782826040516020016128939190613937565b604051602081830303815290604052612c94565b5050565b600030846040516020016128c0929190613594565b604051602081830303815290604052805190602001209050846006600083815260200190815260200160002060006101000a81548173ffffffffffffffffffffffffffffffffffffffff021916908373ffffffffffffffffffffffffffffffffffffffff160217905550807fb5e6e01e79f91267dc17b4e6314d5d4d03593d2ceee0fbb452b750bd70ea5af960405160405180910390a2600360009054906101000a900473ffffffffffffffffffffffffffffffffffffffff1673ffffffffffffffffffffffffffffffffffffffff16634000aea08685856040518463ffffffff1660e01b81526004016129b6939291906136e4565b602060405180830381600087803b1580156129d057600080fd5b505af11580156129e4573d6000803e3d6000fd5b505050506040513d601f19601f82011682018060405250810190612a0891906130aa565b612a47576040517f08c379a0000000000000000000000000000000000000000000000000000000008152600401612a3e90613817565b60405180910390fd5b949350505050565b606082471015612a94576040517f08c379a0000000000000000000000000000000000000000000000000000000008152600401612a8b90613857565b60405180910390fd5b612a9d85612cb9565b612adc576040517f08c379a0000000000000000000000000000000000000000000000000000000008152600401612ad390613897565b60405180910390fd5b6000808673ffffffffffffffffffffffffffffffffffffffff168587604051612b05919061357d565b60006040518083038185875af1925050503d8060008114612b42576040519150601f19603f3d011682016040523d82523d6000602084013e612b47565b606091505b5091509150612b57828286612cdc565b92505050949350505050565b612b6b612f05565b612b7b8384600001515184612d43565b905092915050565b612b8b612f05565b612b9c848560000151518585612d9a565b90509392505050565b612bad612f05565b8251821115612bbb57600080fd5b84602001518285612bcc9190613a66565b1115612c0157612c00856002612bf188602001518887612bec9190613a66565b612e28565b612bfb9190613c5e565b612e44565b5b600080865180518760208301019350808887011115612c205787860182525b60208701925050505b60208410612c675780518252602082612c429190613a66565b9150602081612c519190613a66565b9050602084612c609190613d4c565b9350612c29565b60006001856020036101000a03905080198251168184511681811785525050508692505050949350505050565b612ca18260028351612641565b612cb481836127c690919063ffffffff16565b505050565b6000808273ffffffffffffffffffffffffffffffffffffffff163b119050919050565b60608315612cec57829050612d3c565b600083511115612cff5782518084602001fd5b816040517f08c379a0000000000000000000000000000000000000000000000000000000008152600401612d339190613795565b60405180910390fd5b9392505050565b612d4b612f05565b83602001518310612d7157612d708460028660200151612d6b9190613c5e565b612e44565b5b8351805160208583010184815381861415612d8d576001820183525b5050508390509392505050565b612da2612f05565b84602001518483612db39190613a66565b1115612ddb57612dda8560028685612dcb9190613a66565b612dd59190613c5e565b612e44565b5b6000600183610100612ded9190613b40565b612df79190613d4c565b90508551838682010185831982511617815281518588011115612e1a5784870182525b505085915050949350505050565b600081831115612e3a57829050612e3e565b8190505b92915050565b600082600001519050612e5783836125d7565b50612e6283826127c6565b50505050565b6040518060400160405280600073ffffffffffffffffffffffffffffffffffffffff168152602001600081525090565b6040518060a0016040528060008019168152602001600073ffffffffffffffffffffffffffffffffffffffff16815260200160007bffffffffffffffffffffffffffffffffffffffffffffffffffffffff1916815260200160008152602001612eff612f05565b81525090565b604051806040016040528060608152602001600081525090565b6000612f32612f2d846139ae565b613989565b905082815260208101848484011115612f4a57600080fd5b612f55848285613e74565b509392505050565b6000612f70612f6b846139ae565b613989565b905082815260208101848484011115612f8857600080fd5b612f93848285613e83565b509392505050565b600081359050612faa816142f5565b92915050565b600081519050612fbf816142f5565b92915050565b600081519050612fd48161430c565b92915050565b600081359050612fe981614323565b92915050565b600082601f83011261300057600080fd5b8135613010848260208601612f1f565b91505092915050565b600082601f83011261302a57600080fd5b815161303a848260208601612f5d565b91505092915050565b6000813590506130528161433a565b92915050565b60006020828403121561306a57600080fd5b600061307884828501612f9b565b91505092915050565b60006020828403121561309357600080fd5b60006130a184828501612fb0565b91505092915050565b6000602082840312156130bc57600080fd5b60006130ca84828501612fc5565b91505092915050565b600080604083850312156130e657600080fd5b60006130f485828601612fda565b925050602061310585828601613043565b9150509250929050565b60006020828403121561312157600080fd5b600082013567ffffffffffffffff81111561313b57600080fd5b61314784828501612fef565b91505092915050565b60006020828403121561316257600080fd5b600082015167ffffffffffffffff81111561317c57600080fd5b61318884828501613019565b91505092915050565b6000602082840312156131a357600080fd5b60006131b184828501613043565b91505092915050565b60006131c68383613519565b60408301905092915050565b6131db81613d80565b82525050565b6131ea81613d80565b82525050565b60006131fb826139ef565b6132058185613a1d565b9350613210836139df565b8060005b8381101561324157815161322888826131ba565b975061323383613a10565b925050600181019050613214565b5085935050505092915050565b61325781613d9e565b82525050565b61326681613da8565b82525050565b6000613277826139fa565b6132818185613a2e565b9350613291818560208601613e83565b61329a81614046565b840191505092915050565b60006132b0826139fa565b6132ba8185613a3f565b93506132ca818560208601613e83565b80840191505092915050565b6132e76132e282613e08565b613f5a565b82525050565b6132f681613e2c565b82525050565b61330581613e50565b82525050565b600061331682613a05565b6133208185613a4a565b9350613330818560208601613e83565b61333981614046565b840191505092915050565b600061334f82613a05565b6133598185613a5b565b9350613369818560208601613e83565b80840191505092915050565b6000613382601983613a4a565b915061338d82614071565b602082019050919050565b60006133a5601683613a4a565b91506133b08261409a565b602082019050919050565b60006133c8601983613a4a565b91506133d3826140c3565b602082019050919050565b60006133eb602383613a4a565b91506133f6826140ec565b604082019050919050565b600061340e601683613a4a565b91506134198261413b565b602082019050919050565b6000613431602683613a4a565b915061343c82614164565b604082019050919050565b6000613454601c83613a4a565b915061345f826141b3565b602082019050919050565b6000613477601d83613a4a565b9150613482826141dc565b602082019050919050565b600061349a601783613a4a565b91506134a582614205565b602082019050919050565b60006134bd602883613a4a565b91506134c88261422e565b604082019050919050565b60006134e0602a83613a4a565b91506134eb8261427d565b604082019050919050565b6000613503601f83613a4a565b915061350e826142cc565b602082019050919050565b60408201600082015161352f60008501826131d2565b5060208201516135426020850182613548565b50505050565b61355181613dfe565b82525050565b61356081613dfe565b82525050565b61357761357282613dfe565b613f7e565b82525050565b600061358982846132a5565b915081905092915050565b60006135a082856132d6565b6014820191506135b08284613566565b6020820191508190509392505050565b60006135cc8285613344565b91506135d88284613344565b91508190509392505050565b60006020820190506135f960008301846131e1565b92915050565b600060608201905061361460008301866131e1565b61362160208301856131e1565b61362e6040830184613557565b949350505050565b600060408201905061364b60008301856131e1565b6136586020830184613557565b9392505050565b600061010082019050613675600083018b6131e1565b613682602083018a613557565b61368f604083018961324e565b61369c60608301886131e1565b6136a9608083018761325d565b6136b660a0830186613557565b6136c360c0830185613557565b81810360e08301526136d5818461326c565b90509998505050505050505050565b60006060820190506136f960008301866131e1565b6137066020830185613557565b8181036040830152613718818461326c565b9050949350505050565b6000602082019050818103600083015261373c81846131f0565b905092915050565b6000602082019050613759600083018461324e565b92915050565b600060208201905061377460008301846132ed565b92915050565b600060208201905061378f60008301846132fc565b92915050565b600060208201905081810360008301526137af818461330b565b905092915050565b600060208201905081810360008301526137d081613375565b9050919050565b600060208201905081810360008301526137f081613398565b9050919050565b60006020820190508181036000830152613810816133bb565b9050919050565b60006020820190508181036000830152613830816133de565b9050919050565b6000602082019050818103600083015261385081613401565b9050919050565b6000602082019050818103600083015261387081613424565b9050919050565b6000602082019050818103600083015261389081613447565b9050919050565b600060208201905081810360008301526138b08161346a565b9050919050565b600060208201905081810360008301526138d08161348d565b9050919050565b600060208201905081810360008301526138f0816134b0565b9050919050565b60006020820190508181036000830152613910816134d3565b9050919050565b60006020820190508181036000830152613930816134f6565b9050919050565b600060208201905061394c6000830184613557565b92915050565b60006060820190506139676000830186613557565b6139746020830185613557565b6139816040830184613557565b949350505050565b60006139936139a4565b905061399f8282613ee0565b919050565b6000604051905090565b600067ffffffffffffffff8211156139c9576139c8614017565b5b6139d282614046565b9050602081019050919050565b6000819050602082019050919050565b600081519050919050565b600081519050919050565b600081519050919050565b6000602082019050919050565b600082825260208201905092915050565b600082825260208201905092915050565b600081905092915050565b600082825260208201905092915050565b600081905092915050565b6000613a7182613dfe565b9150613a7c83613dfe565b9250827fffffffffffffffffffffffffffffffffffffffffffffffffffffffffffffffff03821115613ab157613ab0613fb9565b5b828201905092915050565b6000613ac782613dfe565b9150613ad283613dfe565b925082613ae257613ae1613fe8565b5b828204905092915050565b6000808291508390505b6001851115613b3757808604811115613b1357613b12613fb9565b5b6001851615613b225780820291505b8081029050613b3085614064565b9450613af7565b94509492505050565b6000613b4b82613dfe565b9150613b5683613dfe565b9250613b837fffffffffffffffffffffffffffffffffffffffffffffffffffffffffffffffff8484613b8b565b905092915050565b600082613b9b5760019050613c57565b81613ba95760009050613c57565b8160018114613bbf5760028114613bc957613bf8565b6001915050613c57565b60ff841115613bdb57613bda613fb9565b5b8360020a915084821115613bf257613bf1613fb9565b5b50613c57565b5060208310610133831016604e8410600b8410161715613c2d5782820a905083811115613c2857613c27613fb9565b5b613c57565b613c3a8484846001613aed565b92509050818404811115613c5157613c50613fb9565b5b81810290505b9392505050565b6000613c6982613dfe565b9150613c7483613dfe565b9250817fffffffffffffffffffffffffffffffffffffffffffffffffffffffffffffffff0483118215151615613cad57613cac613fb9565b5b828202905092915050565b6000613cc382613dd4565b9150613cce83613dd4565b9250827f800000000000000000000000000000000000000000000000000000000000000001821260008412151615613d0957613d08613fb9565b5b827f7fffffffffffffffffffffffffffffffffffffffffffffffffffffffffffffff018213600084121615613d4157613d40613fb9565b5b828203905092915050565b6000613d5782613dfe565b9150613d6283613dfe565b925082821015613d7557613d74613fb9565b5b828203905092915050565b6000613d8b82613dde565b9050919050565b60008115159050919050565b6000819050919050565b60007fffffffff0000000000000000000000000000000000000000000000000000000082169050919050565b6000819050919050565b600073ffffffffffffffffffffffffffffffffffffffff82169050919050565b6000819050919050565b6000613e1382613e1a565b9050919050565b6000613e2582613dde565b9050919050565b6000613e3782613e3e565b9050919050565b6000613e4982613dde565b9050919050565b6000613e5b82613e62565b9050919050565b6000613e6d82613dde565b9050919050565b82818337600083830152505050565b60005b83811015613ea1578082015181840152602081019050613e86565b83811115613eb0576000848401525b50505050565b6000613ec182613dfe565b91506000821415613ed557613ed4613fb9565b5b600182039050919050565b613ee982614046565b810181811067ffffffffffffffff82111715613f0857613f07614017565b5b80604052505050565b6000613f1c82613dfe565b91507fffffffffffffffffffffffffffffffffffffffffffffffffffffffffffffffff821415613f4f57613f4e613fb9565b5b600182019050919050565b6000613f6582613f6c565b9050919050565b6000613f7782614057565b9050919050565b6000819050919050565b6000613f9382613dfe565b9150613f9e83613dfe565b925082613fae57613fad613fe8565b5b828206905092915050565b7f4e487b7100000000000000000000000000000000000000000000000000000000600052601160045260246000fd5b7f4e487b7100000000000000000000000000000000000000000000000000000000600052601260045260246000fd5b7f4e487b7100000000000000000000000000000000000000000000000000000000600052604160045260246000fd5b6000601f19601f8301169050919050565b60008160601b9050919050565b60008160011c9050919050565b7f596f7520646f6e2774206f776e207468697320746f6b656e2100000000000000600082015250565b7f4d7573742062652070726f706f736564206f776e657200000000000000000000600082015250565b7f596f752068617665206e6f20746f6b656e73207374616b656400000000000000600082015250565b7f756e61626c6520746f207472616e73666572416e6443616c6c20746f206f726160008201527f636c650000000000000000000000000000000000000000000000000000000000602082015250565b7f4f6e6c792063616c6c61626c65206279206f776e657200000000000000000000600082015250565b7f416464726573733a20696e73756666696369656e742062616c616e636520666f60008201527f722063616c6c0000000000000000000000000000000000000000000000000000602082015250565b7f596f752068617665206e6f207265776172647320746f20636c61696d00000000600082015250565b7f416464726573733a2063616c6c20746f206e6f6e2d636f6e7472616374000000600082015250565b7f43616e6e6f74207472616e7366657220746f2073656c66000000000000000000600082015250565b7f536f75726365206d75737420626520746865206f7261636c65206f662074686560008201527f2072657175657374000000000000000000000000000000000000000000000000602082015250565b7f5361666545524332303a204552433230206f7065726174696f6e20646964206e60008201527f6f74207375636365656400000000000000000000000000000000000000000000602082015250565b7f5265656e7472616e637947756172643a207265656e7472616e742063616c6c00600082015250565b6142fe81613d80565b811461430957600080fd5b50565b61431581613d92565b811461432057600080fd5b50565b61432c81613d9e565b811461433757600080fd5b50565b61434381613dfe565b811461434e57600080fd5b5056fea2646970667358221220441656a4e63937f54177c42264ef187d0f298e42a3807af37fe62549959e9d2864736f6c63430008040033",
  "linkReferences": {},
  "deployedLinkReferences": {}
}